{"abi":[{"type":"constructor","inputs":[{"name":"_payee","type":"address","internalType":"address"}],"stateMutability":"nonpayable"},{"type":"function","name":"payee","inputs":[],"outputs":[{"name":"","type":"address","internalType":"address"}],"stateMutability":"view"},{"type":"function","name":"validateAndCollectFee","inputs":[{"name":"","type":"bytes","internalType":"bytes"}],"outputs":[],"stateMutability":"payable"},{"type":"event","name":"FeeCollected","inputs":[{"name":"from","type":"address","indexed":true,"internalType":"address"},{"name":"amount","type":"uint256","indexed":false,"internalType":"uint256"}],"anonymous":false}],"bytecode":{"object":"0x608060405234801561000f575f80fd5b506040516105d73803806105d783398181016040528101906100319190610142565b5f73ffffffffffffffffffffffffffffffffffffffff168173ffffffffffffffffffffffffffffffffffffffff160361009f576040517f08c379a0000000000000000000000000000000000000000000000000000000008152600401610096906101c7565b60405180910390fd5b805f806101000a81548173ffffffffffffffffffffffffffffffffffffffff021916908373ffffffffffffffffffffffffffffffffffffffff160217905550506101e5565b5f80fd5b5f73ffffffffffffffffffffffffffffffffffffffff82169050919050565b5f610111826100e8565b9050919050565b61012181610107565b811461012b575f80fd5b50565b5f8151905061013c81610118565b92915050565b5f60208284031215610157576101566100e4565b5b5f6101648482850161012e565b91505092915050565b5f82825260208201905092915050565b7f496e76616c6964207061796565000000000000000000000000000000000000005f82015250565b5f6101b1600d8361016d565b91506101bc8261017d565b602082019050919050565b5f6020820190508181035f8301526101de816101a5565b9050919050565b6103e5806101f25f395ff3fe608060405260043610610028575f3560e01c8063ae90b2131461002c578063dc92549814610056575b5f80fd5b348015610037575f80fd5b50610040610072565b60405161004d91906101f8565b60405180910390f35b610070600480360381019061006b919061027a565b610095565b005b5f8054906101000a900473ffffffffffffffffffffffffffffffffffffffff1681565b5f3411156101b5575f805f9054906101000a900473ffffffffffffffffffffffffffffffffffffffff1673ffffffffffffffffffffffffffffffffffffffff16346040516100e2906102f2565b5f6040518083038185875af1925050503d805f811461011c576040519150601f19603f3d011682016040523d82523d5f602084013e610121565b606091505b5050905080610165576040517f08c379a000000000000000000000000000000000000000000000000000000000815260040161015c90610360565b60405180910390fd5b3373ffffffffffffffffffffffffffffffffffffffff167f06c5efeff5c320943d265dc4e5f1af95ad523555ce0c1957e367dda5514572df346040516101ab9190610396565b60405180910390a2505b5050565b5f73ffffffffffffffffffffffffffffffffffffffff82169050919050565b5f6101e2826101b9565b9050919050565b6101f2816101d8565b82525050565b5f60208201905061020b5f8301846101e9565b92915050565b5f80fd5b5f80fd5b5f80fd5b5f80fd5b5f80fd5b5f8083601f84011261023a57610239610219565b5b8235905067ffffffffffffffff8111156102575761025661021d565b5b60208301915083600182028301111561027357610272610221565b5b9250929050565b5f80602083850312156102905761028f610211565b5b5f83013567ffffffffffffffff8111156102ad576102ac610215565b5b6102b985828601610225565b92509250509250929050565b5f81905092915050565b50565b5f6102dd5f836102c5565b91506102e8826102cf565b5f82019050919050565b5f6102fc826102d2565b9150819050919050565b5f82825260208201905092915050565b7f5472616e73666572206661696c656400000000000000000000000000000000005f82015250565b5f61034a600f83610306565b915061035582610316565b602082019050919050565b5f6020820190508181035f8301526103778161033e565b9050919050565b5f819050919050565b6103908161037e565b82525050565b5f6020820190506103a95f830184610387565b9291505056fea26469706673582212209ee96bd2c4c0bc0f146bdf062acd360ff4b01993fee446331990e4de499e546d64736f6c63430008180033","linkReferences":{}},"methodIdentifiers":{"payee()":"ae90b213","validateAndCollectFee(bytes)":"dc925498"},"id":17}