{"abi":[{"type":"function","name":"validateVotes","inputs":[{"name":"","type":"bytes32","internalType":"bytes32"},{"name":"","type":"bytes","internalType":"bytes"}],"outputs":[],"stateMutability":"pure"}],"bytecode":{"object":"0x608060405234801561000f575f80fd5b5061017d8061001d5f395ff3fe608060405234801561000f575f80fd5b5060043610610029575f3560e01c8063f003e8bf1461002d575b5f80fd5b610047600480360381019061004291906100ea565b610049565b005b505050565b5f80fd5b5f80fd5b5f819050919050565b61006881610056565b8114610072575f80fd5b50565b5f813590506100838161005f565b92915050565b5f80fd5b5f80fd5b5f80fd5b5f8083601f8401126100aa576100a9610089565b5b8235905067ffffffffffffffff8111156100c7576100c661008d565b5b6020830191508360018202830111156100e3576100e2610091565b5b9250929050565b5f805f604084860312156101015761010061004e565b5b5f61010e86828701610075565b935050602084013567ffffffffffffffff81111561012f5761012e610052565b5b61013b86828701610095565b9250925050925092509256fea2646970667358221220f6cdc1cc155bb2a523914cd9fed8a6f12e8bf50f0d0932789ae104a4f60d9ab864736f6c63430008180033","linkReferences":{}},"methodIdentifiers":{"validateVotes(bytes32,bytes)":"f003e8bf"},"id":18}