{"abi":[{"type":"function","name":"messageCount","inputs":[],"outputs":[{"name":"","type":"uint256","internalType":"uint256"}],"stateMutability":"view"},{"type":"function","name":"messages","inputs":[{"name":"","type":"uint256","internalType":"uint256"}],"outputs":[{"name":"messageId","type":"bytes32","internalType":"bytes32"},{"name":"creditcoinChainId","type":"uint256","internalType":"uint256"},{"name":"emitterAddress","type":"address","internalType":"address"},{"name":"payload","type":"bytes","internalType":"bytes"}],"stateMutability":"view"},{"type":"function","name":"receiveMessage","inputs":[{"name":"messageId","type":"bytes32","internalType":"bytes32"},{"name":"creditcoinChainId","type":"uint256","internalType":"uint256"},{"name":"emitterAddress","type":"address","internalType":"address"},{"name":"payload","type":"bytes","internalType":"bytes"}],"outputs":[],"stateMutability":"nonpayable"},{"type":"event","name":"MessageReceived","inputs":[{"name":"messageId","type":"bytes32","indexed":true,"internalType":"bytes32"},{"name":"emitter","type":"address","indexed":true,"internalType":"address"},{"name":"payload","type":"bytes","indexed":false,"internalType":"bytes"}],"anonymous":false}],"bytecode":{"object":"0x608060405234801561000f575f80fd5b5061097d8061001d5f395ff3fe608060405234801561000f575f80fd5b506004361061003f575f3560e01c80630d80fefd146100435780633dbcc8d114610076578063f556880314610094575b5f80fd5b61005d6004803603810190610058919061033e565b6100b0565b60405161006d9493929190610459565b60405180910390f35b61007e61018f565b60405161008b91906104a3565b60405180910390f35b6100ae60048036038101906100a99190610571565b61019a565b005b5f81815481106100be575f80fd5b905f5260205f2090600402015f91509050805f015490806001015490806002015f9054906101000a900473ffffffffffffffffffffffffffffffffffffffff169080600301805461010e90610622565b80601f016020809104026020016040519081016040528092919081815260200182805461013a90610622565b80156101855780601f1061015c57610100808354040283529160200191610185565b820191905f5260205f20905b81548152906001019060200180831161016857829003601f168201915b5050505050905084565b5f8080549050905090565b5f60405180608001604052808781526020018681526020018573ffffffffffffffffffffffffffffffffffffffff16815260200184848080601f0160208091040260200160405190810160405280939291908181526020018383808284375f81840152601f19601f82011690508083019250505050505050815250908060018154018082558091505060019003905f5260205f2090600402015f909190919091505f820151815f0155602082015181600101556040820151816002015f6101000a81548173ffffffffffffffffffffffffffffffffffffffff021916908373ffffffffffffffffffffffffffffffffffffffff16021790555060608201518160030190816102a8919061081c565b5050508273ffffffffffffffffffffffffffffffffffffffff16857f61ff615413581b9b24dabebe6013dd2195ab10e3285692574fb0790ca4c05b5684846040516102f4929190610925565b60405180910390a35050505050565b5f80fd5b5f80fd5b5f819050919050565b61031d8161030b565b8114610327575f80fd5b50565b5f8135905061033881610314565b92915050565b5f6020828403121561035357610352610303565b5b5f6103608482850161032a565b91505092915050565b5f819050919050565b61037b81610369565b82525050565b61038a8161030b565b82525050565b5f73ffffffffffffffffffffffffffffffffffffffff82169050919050565b5f6103b982610390565b9050919050565b6103c9816103af565b82525050565b5f81519050919050565b5f82825260208201905092915050565b5f5b838110156104065780820151818401526020810190506103eb565b5f8484015250505050565b5f601f19601f8301169050919050565b5f61042b826103cf565b61043581856103d9565b93506104458185602086016103e9565b61044e81610411565b840191505092915050565b5f60808201905061046c5f830187610372565b6104796020830186610381565b61048660408301856103c0565b81810360608301526104988184610421565b905095945050505050565b5f6020820190506104b65f830184610381565b92915050565b6104c581610369565b81146104cf575f80fd5b50565b5f813590506104e0816104bc565b92915050565b6104ef816103af565b81146104f9575f80fd5b50565b5f8135905061050a816104e6565b92915050565b5f80fd5b5f80fd5b5f80fd5b5f8083601f84011261053157610530610510565b5b8235905067ffffffffffffffff81111561054e5761054d610514565b5b60208301915083600182028301111561056a57610569610518565b5b9250929050565b5f805f805f6080868803121561058a57610589610303565b5b5f610597888289016104d2565b95505060206105a88882890161032a565b94505060406105b9888289016104fc565b935050606086013567ffffffffffffffff8111156105da576105d9610307565b5b6105e68882890161051c565b92509250509295509295909350565b7f4e487b71000000000000000000000000000000000000000000000000000000005f52602260045260245ffd5b5f600282049050600182168061063957607f821691505b60208210810361064c5761064b6105f5565b5b50919050565b7f4e487b71000000000000000000000000000000000000000000000000000000005f52604160045260245ffd5b5f819050815f5260205f209050919050565b5f6020601f8301049050919050565b5f82821b905092915050565b5f600883026106db7fffffffffffffffffffffffffffffffffffffffffffffffffffffffffffffffff826106a0565b6106e586836106a0565b95508019841693508086168417925050509392505050565b5f819050919050565b5f61072061071b6107168461030b565b6106fd565b61030b565b9050919050565b5f819050919050565b61073983610706565b61074d61074582610727565b8484546106ac565b825550505050565b5f90565b610761610755565b61076c818484610730565b505050565b5b8181101561078f576107845f82610759565b600181019050610772565b5050565b601f8211156107d4576107a58161067f565b6107ae84610691565b810160208510156107bd578190505b6107d16107c985610691565b830182610771565b50505b505050565b5f82821c905092915050565b5f6107f45f19846008026107d9565b1980831691505092915050565b5f61080c83836107e5565b9150826002028217905092915050565b610825826103cf565b67ffffffffffffffff81111561083e5761083d610652565b5b6108488254610622565b610853828285610793565b5f60209050601f831160018114610884575f8415610872578287015190505b61087c8582610801565b8655506108e3565b601f1984166108928661067f565b5f5b828110156108b957848901518255600182019150602085019450602081019050610894565b868310156108d657848901516108d2601f8916826107e5565b8355505b6001600288020188555050505b505050505050565b828183375f83830152505050565b5f61090483856103d9565b93506109118385846108eb565b61091a83610411565b840190509392505050565b5f6020820190508181035f83015261093e8184866108f9565b9050939250505056fea264697066735822122094064f9edc12dc5594b59b9e7a36f582fcfdb81709370a4a701e4c1c631294b464736f6c63430008180033","linkReferences":{}},"methodIdentifiers":{"messageCount()":"3dbcc8d1","messages(uint256)":"0d80fefd","receiveMessage(bytes32,uint256,address,bytes)":"f5568803"},"id":19}