{"abi":[{"type":"constructor","inputs":[{"name":"_voteValidator","type":"address","internalType":"address"},{"name":"_creditcoinChainId","type":"uint256","internalType":"uint256"},{"name":"_localChainKey","type":"bytes32","internalType":"bytes32"}],"stateMutability":"nonpayable"},{"type":"function","name":"creditcoinChainId","inputs":[],"outputs":[{"name":"","type":"uint256","internalType":"uint256"}],"stateMutability":"view"},{"type":"function","name":"deliverMessage","inputs":[{"name":"messageId","type":"bytes32","internalType":"bytes32"},{"name":"emitterAddress","type":"address","internalType":"address"},{"name":"payload","type":"bytes","internalType":"bytes"},{"name":"votes","type":"bytes","internalType":"bytes"}],"outputs":[{"name":"","type":"bool","internalType":"bool"}],"stateMutability":"nonpayable"},{"type":"function","name":"executeDelivery","inputs":[{"name":"destinationContract","type":"address","internalType":"address"},{"name":"messageId","type":"bytes32","internalType":"bytes32"},{"name":"emitterAddress","type":"address","internalType":"address"},{"name":"payload","type":"bytes","internalType":"bytes"}],"outputs":[],"stateMutability":"nonpayable"},{"type":"function","name":"isPending","inputs":[{"name":"","type":"bytes32","internalType":"bytes32"}],"outputs":[{"name":"","type":"bool","internalType":"bool"}],"stateMutability":"view"},{"type":"function","name":"localChainKey","inputs":[],"outputs":[{"name":"","type":"bytes32","internalType":"bytes32"}],"stateMutability":"view"},{"type":"function","name":"retryPendingMessage","inputs":[{"name":"messageId","type":"bytes32","internalType":"bytes32"}],"outputs":[],"stateMutability":"nonpayable"},{"type":"function","name":"voteValidator","inputs":[],"outputs":[{"name":"","type":"address","internalType":"contract IVoteValidator"}],"stateMutability":"view"},{"type":"event","name":"MessageDelivered","inputs":[{"name":"messageId","type":"bytes32","indexed":true,"internalType":"bytes32"}],"anonymous":false},{"type":"event","name":"MessagePending","inputs":[{"name":"messageId","type":"bytes32","indexed":true,"internalType":"bytes32"},{"name":"destinationContract","type":"address","indexed":true,"internalType":"address"}],"anonymous":false}],"bytecode":{"object":"0x60c060405234801562000010575f80fd5b5060405162001989380380620019898339818101604052810190620000369190620001d4565b5f73ffffffffffffffffffffffffffffffffffffffff168373ffffffffffffffffffffffffffffffffffffffff1603620000a7576040517f08c379a00000000000000000000000000000000000000000000000000000000081526004016200009e906200028b565b60405180910390fd5b825f806101000a81548173ffffffffffffffffffffffffffffffffffffffff021916908373ffffffffffffffffffffffffffffffffffffffff16021790555081608081815250508060a08181525050505050620002ab565b5f80fd5b5f73ffffffffffffffffffffffffffffffffffffffff82169050919050565b5f6200012e8262000103565b9050919050565b620001408162000122565b81146200014b575f80fd5b50565b5f815190506200015e8162000135565b92915050565b5f819050919050565b620001788162000164565b811462000183575f80fd5b50565b5f8151905062000196816200016d565b92915050565b5f819050919050565b620001b0816200019c565b8114620001bb575f80fd5b50565b5f81519050620001ce81620001a5565b92915050565b5f805f60608486031215620001ee57620001ed620000ff565b5b5f620001fd868287016200014e565b9350506020620002108682870162000186565b92505060406200022386828701620001be565b9150509250925092565b5f82825260208201905092915050565b7f496e76616c69642076616c696461746f720000000000000000000000000000005f82015250565b5f620002736011836200022d565b915062000280826200023d565b602082019050919050565b5f6020820190508181035f830152620002a48162000265565b9050919050565b60805160a0516116a7620002e25f395f81816103a601526106f301525f818161021b015281816103c70152610a0a01526116a75ff3fe608060405234801561000f575f80fd5b506004361061007b575f3560e01c806393d628d41161005957806393d628d4146100e9578063d082e59514610105578063d32c062914610123578063e531d8c7146101415761007b565b80630d7433df1461007f57806313cb15fc1461009b578063250a3e72146100cb575b5f80fd5b61009960048036038101906100949190610c9e565b610171565b005b6100b560048036038101906100b09190610d7b565b610342565b6040516100c29190610e38565b60405180910390f35b6100d36106f1565b6040516100e09190610e60565b60405180910390f35b61010360048036038101906100fe9190610e79565b610715565b005b61010d610a08565b60405161011a9190610ebc565b60405180910390f35b61012b610a2c565b6040516101389190610f30565b60405180910390f35b61015b60048036038101906101569190610e79565b610a4f565b6040516101689190610e38565b60405180910390f35b3073ffffffffffffffffffffffffffffffffffffffff163373ffffffffffffffffffffffffffffffffffffffff16146101df576040517f08c379a00000000000000000000000000000000000000000000000000000000081526004016101d690610fa3565b60405180910390fd5b5f8473ffffffffffffffffffffffffffffffffffffffff167ff55688039d5f681f6090cd2a5253ba3aa6437dc3379042e1bb79f06f50a7c669857f0000000000000000000000000000000000000000000000000000000000000000868660405160240161024f949392919061104a565b604051602081830303815290604052907bffffffffffffffffffffffffffffffffffffffffffffffffffffffff19166020820180517bffffffffffffffffffffffffffffffffffffffffffffffffffffffff83818316178352505050506040516102b991906110ce565b5f604051808303815f865af19150503d805f81146102f2576040519150601f19603f3d011682016040523d82523d5f602084013e6102f7565b606091505b505090508061033b576040517f08c379a00000000000000000000000000000000000000000000000000000000081526004016103329061112e565b60405180910390fd5b5050505050565b5f60015f8881526020019081526020015f205f9054906101000a900460ff16156103a1576040517f08c379a000000000000000000000000000000000000000000000000000000000815260040161039890611196565b60405180910390fd5b5f87877f00000000000000000000000000000000000000000000000000000000000000007f000000000000000000000000000000000000000000000000000000000000000089896040516020016103fd969594939291906111e0565b6040516020818303038152906040528051906020012090505f8054906101000a900473ffffffffffffffffffffffffffffffffffffffff1673ffffffffffffffffffffffffffffffffffffffff1663f003e8bf8286866040518463ffffffff1660e01b81526004016104719392919061123a565b5f6040518083038186803b158015610487575f80fd5b505afa158015610499573d5f803e3d5ffd5b505050506001805f8a81526020019081526020015f205f6101000a81548160ff0219169083151502179055505f8087878101906104d691906112a5565b915091503073ffffffffffffffffffffffffffffffffffffffff16630d7433df838c8c856040518563ffffffff1660e01b815260040161051994939291906112ff565b5f604051808303815f87803b158015610530575f80fd5b505af1925050508015610541575060015b6106b257600160035f8c81526020019081526020015f205f6101000a81548160ff02191690831515021790555060405180606001604052808373ffffffffffffffffffffffffffffffffffffffff1681526020018a73ffffffffffffffffffffffffffffffffffffffff1681526020018281525060025f8c81526020019081526020015f205f820151815f015f6101000a81548173ffffffffffffffffffffffffffffffffffffffff021916908373ffffffffffffffffffffffffffffffffffffffff1602179055506020820151816001015f6101000a81548173ffffffffffffffffffffffffffffffffffffffff021916908373ffffffffffffffffffffffffffffffffffffffff1602179055506040820151816002019081610665919061153a565b509050508173ffffffffffffffffffffffffffffffffffffffff168a7f88b9524f67fa30dfd339993d731c6becf6edd14eb2d427d997724a7e3ab4684560405160405180910390a36106e0565b897ffa39010b12e169f2d7e9a76e381216416dbf5eb59db117ae979592ee9f32388560405160405180910390a25b600193505050509695505050505050565b7f000000000000000000000000000000000000000000000000000000000000000081565b60035f8281526020019081526020015f205f9054906101000a900460ff16610772576040517f08c379a000000000000000000000000000000000000000000000000000000000815260040161076990611653565b60405180910390fd5b5f60025f8381526020019081526020015f206040518060600160405290815f82015f9054906101000a900473ffffffffffffffffffffffffffffffffffffffff1673ffffffffffffffffffffffffffffffffffffffff1673ffffffffffffffffffffffffffffffffffffffff168152602001600182015f9054906101000a900473ffffffffffffffffffffffffffffffffffffffff1673ffffffffffffffffffffffffffffffffffffffff1673ffffffffffffffffffffffffffffffffffffffff16815260200160028201805461084890611376565b80601f016020809104026020016040519081016040528092919081815260200182805461087490611376565b80156108bf5780601f10610896576101008083540402835291602001916108bf565b820191905f5260205f20905b8154815290600101906020018083116108a257829003601f168201915b505050505081525050905060025f8381526020019081526020015f205f8082015f6101000a81549073ffffffffffffffffffffffffffffffffffffffff0219169055600182015f6101000a81549073ffffffffffffffffffffffffffffffffffffffff0219169055600282015f6109369190610a6c565b50505f60035f8481526020019081526020015f205f6101000a81548160ff0219169083151502179055503073ffffffffffffffffffffffffffffffffffffffff16630d7433df825f015184846020015185604001516040518563ffffffff1660e01b81526004016109aa94939291906112ff565b5f604051808303815f87803b1580156109c1575f80fd5b505af11580156109d3573d5f803e3d5ffd5b50505050817ffa39010b12e169f2d7e9a76e381216416dbf5eb59db117ae979592ee9f32388560405160405180910390a25050565b7f000000000000000000000000000000000000000000000000000000000000000081565b5f8054906101000a900473ffffffffffffffffffffffffffffffffffffffff1681565b6003602052805f5260405f205f915054906101000a900460ff1681565b508054610a7890611376565b5f825580601f10610a895750610aa6565b601f0160209004905f5260205f2090810190610aa59190610aa9565b5b50565b5b80821115610ac0575f815f905550600101610aaa565b5090565b5f604051905090565b5f80fd5b5f80fd5b5f73ffffffffffffffffffffffffffffffffffffffff82169050919050565b5f610afe82610ad5565b9050919050565b610b0e81610af4565b8114610b18575f80fd5b50565b5f81359050610b2981610b05565b92915050565b5f819050919050565b610b4181610b2f565b8114610b4b575f80fd5b50565b5f81359050610b5c81610b38565b92915050565b5f80fd5b5f80fd5b5f601f19601f8301169050919050565b7f4e487b71000000000000000000000000000000000000000000000000000000005f52604160045260245ffd5b610bb082610b6a565b810181811067ffffffffffffffff82111715610bcf57610bce610b7a565b5b80604052505050565b5f610be1610ac4565b9050610bed8282610ba7565b919050565b5f67ffffffffffffffff821115610c0c57610c0b610b7a565b5b610c1582610b6a565b9050602081019050919050565b828183375f83830152505050565b5f610c42610c3d84610bf2565b610bd8565b905082815260208101848484011115610c5e57610c5d610b66565b5b610c69848285610c22565b509392505050565b5f82601f830112610c8557610c84610b62565b5b8135610c95848260208601610c30565b91505092915050565b5f805f8060808587031215610cb657610cb5610acd565b5b5f610cc387828801610b1b565b9450506020610cd487828801610b4e565b9350506040610ce587828801610b1b565b925050606085013567ffffffffffffffff811115610d0657610d05610ad1565b5b610d1287828801610c71565b91505092959194509250565b5f80fd5b5f80fd5b5f8083601f840112610d3b57610d3a610b62565b5b8235905067ffffffffffffffff811115610d5857610d57610d1e565b5b602083019150836001820283011115610d7457610d73610d22565b5b9250929050565b5f805f805f8060808789031215610d9557610d94610acd565b5b5f610da289828a01610b4e565b9650506020610db389828a01610b1b565b955050604087013567ffffffffffffffff811115610dd457610dd3610ad1565b5b610de089828a01610d26565b9450945050606087013567ffffffffffffffff811115610e0357610e02610ad1565b5b610e0f89828a01610d26565b92509250509295509295509295565b5f8115159050919050565b610e3281610e1e565b82525050565b5f602082019050610e4b5f830184610e29565b92915050565b610e5a81610b2f565b82525050565b5f602082019050610e735f830184610e51565b92915050565b5f60208284031215610e8e57610e8d610acd565b5b5f610e9b84828501610b4e565b91505092915050565b5f819050919050565b610eb681610ea4565b82525050565b5f602082019050610ecf5f830184610ead565b92915050565b5f819050919050565b5f610ef8610ef3610eee84610ad5565b610ed5565b610ad5565b9050919050565b5f610f0982610ede565b9050919050565b5f610f1a82610eff565b9050919050565b610f2a81610f10565b82525050565b5f602082019050610f435f830184610f21565b92915050565b5f82825260208201905092915050565b7f4f6e6c792073656c6600000000000000000000000000000000000000000000005f82015250565b5f610f8d600983610f49565b9150610f9882610f59565b602082019050919050565b5f6020820190508181035f830152610fba81610f81565b9050919050565b610fca81610af4565b82525050565b5f81519050919050565b5f82825260208201905092915050565b5f5b83811015611007578082015181840152602081019050610fec565b5f8484015250505050565b5f61101c82610fd0565b6110268185610fda565b9350611036818560208601610fea565b61103f81610b6a565b840191505092915050565b5f60808201905061105d5f830187610e51565b61106a6020830186610ead565b6110776040830185610fc1565b81810360608301526110898184611012565b905095945050505050565b5f81905092915050565b5f6110a882610fd0565b6110b28185611094565b93506110c2818560208601610fea565b80840191505092915050565b5f6110d9828461109e565b915081905092915050565b7f44656c6976657279206661696c656400000000000000000000000000000000005f82015250565b5f611118600f83610f49565b9150611123826110e4565b602082019050919050565b5f6020820190508181035f8301526111458161110c565b9050919050565b7f416c72656164792076616c6964617465640000000000000000000000000000005f82015250565b5f611180601183610f49565b915061118b8261114c565b602082019050919050565b5f6020820190508181035f8301526111ad81611174565b9050919050565b5f6111bf8385610fda565b93506111cc838584610c22565b6111d583610b6a565b840190509392505050565b5f60a0820190506111f35f830189610e51565b6112006020830188610fc1565b61120d6040830187610e51565b61121a6060830186610ead565b818103608083015261122d8184866111b4565b9050979650505050505050565b5f60408201905061124d5f830186610e51565b81810360208301526112608184866111b4565b9050949350505050565b5f61127482610ad5565b9050919050565b6112848161126a565b811461128e575f80fd5b50565b5f8135905061129f8161127b565b92915050565b5f80604083850312156112bb576112ba610acd565b5b5f6112c885828601611291565b925050602083013567ffffffffffffffff8111156112e9576112e8610ad1565b5b6112f585828601610c71565b9150509250929050565b5f6080820190506113125f830187610fc1565b61131f6020830186610e51565b61132c6040830185610fc1565b818103606083015261133e8184611012565b905095945050505050565b7f4e487b71000000000000000000000000000000000000000000000000000000005f52602260045260245ffd5b5f600282049050600182168061138d57607f821691505b6020821081036113a05761139f611349565b5b50919050565b5f819050815f5260205f209050919050565b5f6020601f8301049050919050565b5f82821b905092915050565b5f600883026114027fffffffffffffffffffffffffffffffffffffffffffffffffffffffffffffffff826113c7565b61140c86836113c7565b95508019841693508086168417925050509392505050565b5f61143e61143961143484610ea4565b610ed5565b610ea4565b9050919050565b5f819050919050565b61145783611424565b61146b61146382611445565b8484546113d3565b825550505050565b5f90565b61147f611473565b61148a81848461144e565b505050565b5b818110156114ad576114a25f82611477565b600181019050611490565b5050565b601f8211156114f2576114c3816113a6565b6114cc846113b8565b810160208510156114db578190505b6114ef6114e7856113b8565b83018261148f565b50505b505050565b5f82821c905092915050565b5f6115125f19846008026114f7565b1980831691505092915050565b5f61152a8383611503565b9150826002028217905092915050565b61154382610fd0565b67ffffffffffffffff81111561155c5761155b610b7a565b5b6115668254611376565b6115718282856114b1565b5f60209050601f8311600181146115a2575f8415611590578287015190505b61159a858261151f565b865550611601565b601f1984166115b0866113a6565b5f5b828110156115d7578489015182556001820191506020850194506020810190506115b2565b868310156115f457848901516115f0601f891682611503565b8355505b6001600288020188555050505b505050505050565b7f4e6f742070656e64696e670000000000000000000000000000000000000000005f82015250565b5f61163d600b83610f49565b915061164882611609565b602082019050919050565b5f6020820190508181035f83015261166a81611631565b905091905056fea264697066735822122075ea15bdc92f8b1715574ec49b0dc60816a3ca6341374d8e6dec0b1f00ea584064736f6c63430008180033","linkReferences":{}},"methodIdentifiers":{"creditcoinChainId()":"d082e595","deliverMessage(bytes32,address,bytes,bytes)":"13cb15fc","executeDelivery(address,bytes32,address,bytes)":"0d7433df","isPending(bytes32)":"e531d8c7","localChainKey()":"250a3e72","retryPendingMessage(bytes32)":"93d628d4","voteValidator()":"d32c0629"},"id":16}